{
  "contractName": "CurryJobs",
  "abi": [
    {
      "constant": true,
      "inputs": [
        {
          "name": "",
          "type": "uint256"
        },
        {
          "name": "",
          "type": "address"
        }
      ],
      "name": "jobsMapping",
      "outputs": [
        {
          "name": "price",
          "type": "uint256"
        },
        {
          "name": "status",
          "type": "uint8"
        }
      ],
      "payable": false,
      "stateMutability": "view",
      "type": "function"
    },
    {
      "anonymous": false,
      "inputs": [
        {
          "indexed": false,
          "name": "curryId",
          "type": "uint256"
        },
        {
          "indexed": false,
          "name": "customer",
          "type": "address"
        }
      ],
      "name": "Accepted",
      "type": "event"
    },
    {
      "anonymous": false,
      "inputs": [
        {
          "indexed": false,
          "name": "curryId",
          "type": "uint256"
        },
        {
          "indexed": false,
          "name": "customer",
          "type": "address"
        }
      ],
      "name": "Rejected",
      "type": "event"
    },
    {
      "anonymous": false,
      "inputs": [
        {
          "indexed": false,
          "name": "curryId",
          "type": "uint256"
        },
        {
          "indexed": false,
          "name": "customer",
          "type": "address"
        }
      ],
      "name": "Canceled",
      "type": "event"
    },
    {
      "anonymous": false,
      "inputs": [
        {
          "indexed": false,
          "name": "curryId",
          "type": "uint256"
        },
        {
          "indexed": false,
          "name": "customer",
          "type": "address"
        }
      ],
      "name": "InProgress",
      "type": "event"
    },
    {
      "anonymous": false,
      "inputs": [
        {
          "indexed": false,
          "name": "curryId",
          "type": "uint256"
        },
        {
          "indexed": false,
          "name": "customer",
          "type": "address"
        }
      ],
      "name": "JobAwaitingPayment",
      "type": "event"
    },
    {
      "constant": false,
      "inputs": [
        {
          "name": "curryId",
          "type": "uint256"
        },
        {
          "name": "price",
          "type": "uint256"
        }
      ],
      "name": "createJob",
      "outputs": [],
      "payable": false,
      "stateMutability": "nonpayable",
      "type": "function"
    },
    {
      "constant": true,
      "inputs": [
        {
          "name": "curryId",
          "type": "uint256"
        }
      ],
      "name": "getJob",
      "outputs": [
        {
          "name": "",
          "type": "uint256"
        },
        {
          "name": "",
          "type": "uint8"
        }
      ],
      "payable": false,
      "stateMutability": "view",
      "type": "function"
    },
    {
      "constant": false,
      "inputs": [
        {
          "name": "customer",
          "type": "address"
        },
        {
          "name": "status",
          "type": "uint8"
        }
      ],
      "name": "updateJobStatus",
      "outputs": [],
      "payable": false,
      "stateMutability": "nonpayable",
      "type": "function"
    },
    {
      "constant": false,
      "inputs": [
        {
          "name": "customer",
          "type": "address"
        }
      ],
      "name": "acceptJobAsCurry",
      "outputs": [],
      "payable": false,
      "stateMutability": "nonpayable",
      "type": "function"
    },
    {
      "constant": false,
      "inputs": [
        {
          "name": "customer",
          "type": "address"
        }
      ],
      "name": "startJobAsCurry",
      "outputs": [],
      "payable": false,
      "stateMutability": "nonpayable",
      "type": "function"
    },
    {
      "constant": false,
      "inputs": [
        {
          "name": "customer",
          "type": "address"
        }
      ],
      "name": "markDoneAsCurry",
      "outputs": [],
      "payable": false,
      "stateMutability": "nonpayable",
      "type": "function"
    },
    {
      "constant": false,
      "inputs": [
        {
          "name": "customer",
          "type": "address"
        }
      ],
      "name": "cancelJob",
      "outputs": [],
      "payable": false,
      "stateMutability": "nonpayable",
      "type": "function"
    },
    {
      "constant": false,
      "inputs": [
        {
          "name": "customer",
          "type": "address"
        }
      ],
      "name": "rejectJobAsCurry",
      "outputs": [],
      "payable": false,
      "stateMutability": "nonpayable",
      "type": "function"
    },
    {
      "constant": false,
      "inputs": [
        {
          "name": "curryId",
          "type": "uint256"
        }
      ],
      "name": "markDoneAsCustomer",
      "outputs": [],
      "payable": false,
      "stateMutability": "nonpayable",
      "type": "function"
    }
  ],
  "bytecode": "0x6080604052336000806101000a81548173ffffffffffffffffffffffffffffffffffffffff021916908373ffffffffffffffffffffffffffffffffffffffff16021790555034801561005057600080fd5b506109c2806100606000396000f3006080604052600436106100a4576000357c0100000000000000000000000000000000000000000000000000000000900463ffffffff16806302bb11b0146100a9578063203fb94f1461011f578063220578e31461016f57806354709f30146101a657806354808e35146101e957806356e658b51461021657806364db71b8146102595780637ef1e3061461029c578063a11b3a6b146102df578063bf22c45714610322575b600080fd5b3480156100b557600080fd5b506100f460048036038101908080359060200190929190803573ffffffffffffffffffffffffffffffffffffffff169060200190929190505050610378565b6040518083815260200182600681111561010a57fe5b60ff1681526020019250505060405180910390f35b34801561012b57600080fd5b5061016d600480360381019080803573ffffffffffffffffffffffffffffffffffffffff169060200190929190803560ff1690602001909291905050506103b6565b005b34801561017b57600080fd5b506101a460048036038101908080359060200190929190803590602001909291905050506107af565b005b3480156101b257600080fd5b506101e7600480360381019080803573ffffffffffffffffffffffffffffffffffffffff16906020019092919050505061085a565b005b3480156101f557600080fd5b5061021460048036038101908080359060200190929190505050610868565b005b34801561022257600080fd5b50610257600480360381019080803573ffffffffffffffffffffffffffffffffffffffff1690602001909291905050506108e6565b005b34801561026557600080fd5b5061029a600480360381019080803573ffffffffffffffffffffffffffffffffffffffff1690602001909291905050506108f4565b005b3480156102a857600080fd5b506102dd600480360381019080803573ffffffffffffffffffffffffffffffffffffffff169060200190929190505050610902565b005b3480156102eb57600080fd5b50610320600480360381019080803573ffffffffffffffffffffffffffffffffffffffff169060200190929190505050610910565b005b34801561032e57600080fd5b5061034d6004803603810190808035906020019092919050505061091e565b6040518083815260200182600681111561036357fe5b60ff1681526020019250505060405180910390f35b6001602052816000526040600020602052806000526040600020600091509150508060000154908060010160009054906101000a900460ff16905082565b6000806000809054906101000a900473ffffffffffffffffffffffffffffffffffffffff1673ffffffffffffffffffffffffffffffffffffffff1663fb73bd406040518163ffffffff167c0100000000000000000000000000000000000000000000000000000000028152600401602060405180830381600087803b15801561043e57600080fd5b505af1158015610452573d6000803e3d6000fd5b505050506040513d602081101561046857600080fd5b810190808051906020019092919050505091506001600083815260200190815260200160002060008573ffffffffffffffffffffffffffffffffffffffff1673ffffffffffffffffffffffffffffffffffffffff1681526020019081526020016000209050828160010160006101000a81548160ff021916908360068111156104ed57fe5b0217905550600160068111156104ff57fe5b83600681111561050b57fe5b141561057d577fec4eee35e0123e111ca1e78b349d631065c4e0d60bd85b917217cdf2fc749dd18285604051808381526020018273ffffffffffffffffffffffffffffffffffffffff1673ffffffffffffffffffffffffffffffffffffffff1681526020019250505060405180910390a15b6002600681111561058a57fe5b83600681111561059657fe5b1415610608577fbaccaaec0e0ded96134440c58c7614efc37a48ee86401b402ff6772832942e6d8285604051808381526020018273ffffffffffffffffffffffffffffffffffffffff1673ffffffffffffffffffffffffffffffffffffffff1681526020019250505060405180910390a15b6003600681111561061557fe5b83600681111561062157fe5b1415610693577fba05e869a56a216a7344a605ccad13464848815ad8bdf8d93ad788963a3cfdac8285604051808381526020018273ffffffffffffffffffffffffffffffffffffffff1673ffffffffffffffffffffffffffffffffffffffff1681526020019250505060405180910390a15b600460068111156106a057fe5b8360068111156106ac57fe5b141561071e577f9ace24057e340dc7c33950b82ae6440ea7a24584eb622c42284a7357e56509d68285604051808381526020018273ffffffffffffffffffffffffffffffffffffffff1673ffffffffffffffffffffffffffffffffffffffff1681526020019250505060405180910390a15b6004600681111561072b57fe5b83600681111561073757fe5b14156107a9577f6d2967759a5d8a751a45fdfc9244bf23668e2c9ffd50bfe50cd3e27068c6ea4a8285604051808381526020018273ffffffffffffffffffffffffffffffffffffffff1673ffffffffffffffffffffffffffffffffffffffff1681526020019250505060405180910390a15b50505050565b6040805190810160405280828152602001600060068111156107cd57fe5b8152506001600084815260200190815260200160002060003373ffffffffffffffffffffffffffffffffffffffff1673ffffffffffffffffffffffffffffffffffffffff1681526020019081526020016000206000820151816000015560208201518160010160006101000a81548160ff0219169083600681111561084e57fe5b02179055509050505050565b6108658160056103b6565b50565b60006001600083815260200190815260200160002060003373ffffffffffffffffffffffffffffffffffffffff1673ffffffffffffffffffffffffffffffffffffffff168152602001908152602001600020905060058160010160006101000a81548160ff021916908360068111156108dd57fe5b02179055505050565b6108f18160046103b6565b50565b6108ff8160036103b6565b50565b61090d8160026103b6565b50565b61091b8160016103b6565b50565b60008060006001600085815260200190815260200160002060003373ffffffffffffffffffffffffffffffffffffffff1673ffffffffffffffffffffffffffffffffffffffff168152602001908152602001600020905080600001548160010160009054906101000a900460ff1692509250509150915600a165627a7a723058202615b8d9d9cfe54cdeb3ebdf03f7682164bedad160a9359acc70c3ebf0188e6f0029",
  "source": "pragma solidity ^0.4.24;\n\nimport \"./Profiles.sol\";\n\nlibrary Jobs {\n    // Job Metadata\n    struct Job {\n        uint price;\n        Status status;\n    }\n\n    // Current Status of the Job\n    enum Status {\n        Requested,\n        Accepted,\n        Rejected,\n        Canceled,\n        InProgress,\n        AwaitingPayment,\n        Paid\n    }\n}\n\ncontract CurryJobs {\n    using Jobs for *;\n\n    CurryProfiles profiles = CurryProfiles(msg.sender);\n\n    // A curry has accepted the customer's offer.\n    event Accepted(uint curryId, address customer);\n\n    // A curry has rejected the customer's offer.\n    event Rejected(uint curryId, address customer);\n\n    // Something gone wrong and they canceled. No big deal?\n    event Canceled(uint curryId, address customer);\n\n    // They're doing something cool, I guess\n    event InProgress(uint curryId, address customer);\n\n    // A curry is awaiting for payment.\n    event JobAwaitingPayment(uint curryId, address customer);\n\n    // Curry ID -> Customer Address -> Job\n    mapping (uint => mapping (address => Jobs.Job)) public jobsMapping;\n\n    function createJob(uint curryId, uint price) public {\n        jobsMapping[curryId][msg.sender] = Jobs.Job(price, Jobs.Status.Requested);\n    }\n\n    function getJob(uint curryId)\n    view external returns (uint, Jobs.Status) {\n        Jobs.Job storage job = jobsMapping[curryId][msg.sender];\n\n        return (job.price, job.status);\n    }\n\n    function updateJobStatus(address customer, Jobs.Status status) public {\n        uint curryId = profiles.getCurryId();\n        Jobs.Job storage job = jobsMapping[curryId][customer];\n\n        job.status = status;\n\n        if (status == Jobs.Status.Accepted) {\n            emit Accepted(curryId, customer);\n        }\n\n        if (status == Jobs.Status.Rejected) {\n            emit Rejected(curryId, customer);\n        }\n\n        if (status == Jobs.Status.Canceled) {\n            emit Canceled(curryId, customer);\n        }\n\n        if (status == Jobs.Status.InProgress) {\n            emit InProgress(curryId, customer);\n        }\n\n        if (status == Jobs.Status.InProgress) {\n            emit JobAwaitingPayment(curryId, customer);\n        }\n    }\n\n    function acceptJobAsCurry(address customer) public {\n        updateJobStatus(customer, Jobs.Status.Accepted);\n    }\n\n    function startJobAsCurry(address customer) public {\n        updateJobStatus(customer, Jobs.Status.InProgress);\n    }\n\n    function markDoneAsCurry(address customer) public {\n        updateJobStatus(customer, Jobs.Status.AwaitingPayment);\n    }\n\n    function cancelJob(address customer) public {\n        updateJobStatus(customer, Jobs.Status.Canceled);\n    }\n\n    function rejectJobAsCurry(address customer) public {\n        updateJobStatus(customer, Jobs.Status.Rejected);\n    }\n\n    // Customer mark the job as done\n    function markDoneAsCustomer(uint curryId) public {\n        Jobs.Job storage job = jobsMapping[curryId][msg.sender];\n\n        job.status = Jobs.Status.AwaitingPayment;\n    }\n}\n",
  "sourcePath": "/Users/phoomparin/Projects/curry-chain/contracts/Jobs.sol",
  "compiler": {
    "name": "solc",
    "version": "0.4.24+commit.e67f0147.Emscripten.clang"
  },
  "schemaVersion": "2.0.1",
  "updatedAt": "2018-07-29T13:43:23.410Z"
}