{
  "contractName": "CurryProfiles",
  "abi": [
    {
      "constant": true,
      "inputs": [
        {
          "name": "",
          "type": "uint256"
        }
      ],
      "name": "curryList",
      "outputs": [
        {
          "name": "name",
          "type": "string"
        },
        {
          "name": "wallet",
          "type": "address"
        },
        {
          "name": "rank",
          "type": "uint256"
        }
      ],
      "payable": false,
      "stateMutability": "view",
      "type": "function"
    },
    {
      "anonymous": false,
      "inputs": [
        {
          "indexed": false,
          "name": "curryId",
          "type": "uint256"
        }
      ],
      "name": "Registered",
      "type": "event"
    },
    {
      "anonymous": false,
      "inputs": [
        {
          "indexed": false,
          "name": "curryId",
          "type": "uint256"
        },
        {
          "indexed": false,
          "name": "newAddress",
          "type": "address"
        }
      ],
      "name": "AddressUpdated",
      "type": "event"
    },
    {
      "constant": true,
      "inputs": [
        {
          "name": "curryId",
          "type": "uint256"
        }
      ],
      "name": "getProfile",
      "outputs": [
        {
          "name": "",
          "type": "string"
        },
        {
          "name": "",
          "type": "address"
        },
        {
          "name": "",
          "type": "uint256"
        }
      ],
      "payable": false,
      "stateMutability": "view",
      "type": "function"
    },
    {
      "constant": true,
      "inputs": [],
      "name": "getCurryId",
      "outputs": [
        {
          "name": "",
          "type": "uint256"
        }
      ],
      "payable": false,
      "stateMutability": "view",
      "type": "function"
    },
    {
      "constant": false,
      "inputs": [
        {
          "name": "name",
          "type": "string"
        },
        {
          "name": "price",
          "type": "uint256"
        }
      ],
      "name": "registerAsCurry",
      "outputs": [
        {
          "name": "",
          "type": "uint256"
        }
      ],
      "payable": false,
      "stateMutability": "nonpayable",
      "type": "function"
    },
    {
      "constant": false,
      "inputs": [
        {
          "name": "newAddress",
          "type": "address"
        }
      ],
      "name": "updateAddressAsCurry",
      "outputs": [],
      "payable": false,
      "stateMutability": "nonpayable",
      "type": "function"
    }
  ],
  "bytecode": "0x608060405234801561001057600080fd5b506109c7806100206000396000f30060806040526004361061006d576000357c0100000000000000000000000000000000000000000000000000000000900463ffffffff1680631634f368146100725780633ca0764b14610152578063a43891f014610195578063f08f4f641461021c578063fb73bd40146102fc575b600080fd5b34801561007e57600080fd5b5061009d60048036038101908080359060200190929190505050610327565b60405180806020018473ffffffffffffffffffffffffffffffffffffffff1673ffffffffffffffffffffffffffffffffffffffff168152602001838152602001828103825285818151815260200191508051906020019080838360005b838110156101155780820151818401526020810190506100fa565b50505050905090810190601f1680156101425780820380516001836020036101000a031916815260200191505b5094505050505060405180910390f35b34801561015e57600080fd5b50610193600480360381019080803573ffffffffffffffffffffffffffffffffffffffff169060200190929190505050610418565b005b3480156101a157600080fd5b50610206600480360381019080803590602001908201803590602001908080601f0160208091040260200160405190810160405280939291908181526020018383808284378201915050505050509192919290803590602001909291905050506105b6565b6040518082815260200191505060405180910390f35b34801561022857600080fd5b506102476004803603810190808035906020019092919050505061071d565b60405180806020018473ffffffffffffffffffffffffffffffffffffffff1673ffffffffffffffffffffffffffffffffffffffff168152602001838152602001828103825285818151815260200191508051906020019080838360005b838110156102bf5780820151818401526020810190506102a4565b50505050905090810190601f1680156102ec5780820380516001836020036101000a031916815260200191505b5094505050505060405180910390f35b34801561030857600080fd5b50610311610877565b6040518082815260200191505060405180910390f35b60008181548110151561033657fe5b9060005260206000209060030201600091509050806000018054600181600116156101000203166002900480601f0160208091040260200160405190810160405280929190818152602001828054600181600116156101000203166002900480156103e25780601f106103b7576101008083540402835291602001916103e2565b820191906000526020600020905b8154815290600101906020018083116103c557829003601f168201915b5050505050908060010160009054906101000a900473ffffffffffffffffffffffffffffffffffffffff16908060020154905083565b600080339150600160008373ffffffffffffffffffffffffffffffffffffffff1673ffffffffffffffffffffffffffffffffffffffff1681526020019081526020016000205490508260008281548110151561047057fe5b906000526020600020906003020160010160006101000a81548173ffffffffffffffffffffffffffffffffffffffff021916908373ffffffffffffffffffffffffffffffffffffffff16021790555080600160008573ffffffffffffffffffffffffffffffffffffffff1673ffffffffffffffffffffffffffffffffffffffff16815260200190815260200160002081905550600160003373ffffffffffffffffffffffffffffffffffffffff1673ffffffffffffffffffffffffffffffffffffffff168152602001908152602001600020600090557fd76cf56013f9d9167ee3a9739d9e42b1b59ff45f7ff1726594b82f5eccca2c288184604051808381526020018273ffffffffffffffffffffffffffffffffffffffff1673ffffffffffffffffffffffffffffffffffffffff1681526020019250505060405180910390a1505050565b60006105c06108be565b60006060604051908101604052808681526020013373ffffffffffffffffffffffffffffffffffffffff168152602001600081525091506000829080600181540180825580915050906001820390600052602060002090600302016000909192909190915060008201518160000190805190602001906106419291906108f6565b5060208201518160010160006101000a81548173ffffffffffffffffffffffffffffffffffffffff021916908373ffffffffffffffffffffffffffffffffffffffff160217905550604082015181600201555050905080600160003373ffffffffffffffffffffffffffffffffffffffff1673ffffffffffffffffffffffffffffffffffffffff168152602001908152602001600020819055507f1fcb8fd4a09d0facf37b6e1cd47a0cce5aa0b069a1d3d5bd9c223220fa1f5a1c816040518082815260200191505060405180910390a1809250505092915050565b606060008061072a6108be565b60008581548110151561073957fe5b906000526020600020906003020160606040519081016040529081600082018054600181600116156101000203166002900480601f0160208091040260200160405190810160405280929190818152602001828054600181600116156101000203166002900480156107ec5780601f106107c1576101008083540402835291602001916107ec565b820191906000526020600020905b8154815290600101906020018083116107cf57829003601f168201915b505050505081526020016001820160009054906101000a900473ffffffffffffffffffffffffffffffffffffffff1673ffffffffffffffffffffffffffffffffffffffff1673ffffffffffffffffffffffffffffffffffffffff1681526020016002820154815250509050806000015181602001518260400151829250935093509350509193909250565b6000600160003373ffffffffffffffffffffffffffffffffffffffff1673ffffffffffffffffffffffffffffffffffffffff16815260200190815260200160002054905090565b60606040519081016040528060608152602001600073ffffffffffffffffffffffffffffffffffffffff168152602001600081525090565b828054600181600116156101000203166002900490600052602060002090601f016020900481019282601f1061093757805160ff1916838001178555610965565b82800160010185558215610965579182015b82811115610964578251825591602001919060010190610949565b5b5090506109729190610976565b5090565b61099891905b8082111561099457600081600090555060010161097c565b5090565b905600a165627a7a7230582065a1b32d7931971ad5fd460eadf35411a86544015f94c9002076122c49ef184a0029",
  "source": "pragma solidity ^0.4.24;\n\nlibrary Profiles {\n    // Personal Profile of the curry\n    struct Profile {\n        string name;\n        address wallet;\n        uint rank;\n    }\n}\n\ncontract CurryProfiles {\n    using Profiles for *;\n\n    // A curry has registered.\n    event Registered(uint curryId);\n\n    // A curry has updated their wallet address.\n    event AddressUpdated(uint curryId, address newAddress);\n\n    // List of Curry\n    Profiles.Profile[] public curryList;\n\n    // Contract Mappings of Curry\n    mapping (address => uint) addressToCurry;\n\n    function getProfile(uint curryId)\n    public view returns (string, address, uint) {\n        Profiles.Profile memory curry = curryList[curryId];\n\n        return (curry.name, curry.wallet, curry.rank);\n    }\n\n    function getCurryId() public view returns (uint) {\n        return addressToCurry[msg.sender];\n    }\n\n    // Register as a curry\n    function registerAsCurry(string name, uint price)\n    public returns (uint) {\n        // Create the Curry Profile\n        Profiles.Profile memory curry = Profiles.Profile(name, msg.sender, 0);\n\n        // Adds the profile to curryList\n        uint id = curryList.push(curry);\n\n        // Assigns your wallet address to addressToCurry\n        addressToCurry[msg.sender] = id;\n\n        emit Registered(id);\n\n        return id;\n    }\n\n    // Update the wallet address as a curry\n    function updateAddressAsCurry(address newAddress) public {\n        address currentAddress = msg.sender;\n\n        // Set the new wallet address in Profile List\n        uint id = addressToCurry[currentAddress];\n        curryList[id].wallet = newAddress;\n\n        // Set the new wallet address to your Profile ID\n        addressToCurry[newAddress] = id;\n\n        // Remove the old wallet address from the list.\n        delete addressToCurry[msg.sender];\n\n        emit AddressUpdated(id, newAddress);\n    }\n}\n",
  "sourcePath": "/Users/phoomparin/Projects/curry-chain/contracts/Profiles.sol",
  "compiler": {
    "name": "solc",
    "version": "0.4.24+commit.e67f0147.Emscripten.clang"
  },
  "schemaVersion": "2.0.1",
  "updatedAt": "2018-07-29T13:43:23.418Z"
}